:020000020000FC
:1000000056C055C054C053C052C00BC050C04FC0A2
:100010002DC04DC04CC04BC04AC03DC048C047C0B9
:1000200046C00FB644B555B5CA01821B930BFE01FD
:100030007497B8F48617970718F4EFE4ECBF11C073
:10004000FB01FF24EE0FFF1FFF1C6F0F7F1DEE0F44
:10005000FF1FFF1C6F0F7F1D6817790710F4EFEF6C
:10006000ECBFBC019A0111960FBE18950FB6FD01A9
:10007000749760F07596EC17FD0718F4EFEFECBF7E
:1000800005C0CA17DB0710F4EFE4ECBFED01AA27A7
:10009000BB270FBE18950FB6E5B1EE3530F0E5E1A0
:1000A000E6BFECBFEBB3E860EBBB0FBE18950FEDFE
:1000B0000DBF02E000B90BE014E008BB17BB07E777
:1000C00001B903E718E80BBB1ABB02E508B908B190
:1000D00008B9429A7FEF002705BD04BD00E00FBDBF
:1000E00002E80EBD0BB10BB901E20CB90FEF06BF70
:1000F0000FE40CBF00E009BF01EA00BF02E003BF4C
:040100007894FFCF21
:00000001FF
