:020000020000FC
:1000000037C036C035C034C033C00BC031C030C07B
:1000100020C02EC02DC02CC02BC01FC029C028C09E
:1000200027C00FB654B54C596F4F7F4F54178607F2
:10003000970728F42FEF26BF2FE42CBF04C02FEF23
:1000400026BF2FEF2CBF452FBC01882799270FBE55
:1000500018950FB601960FBE18950FB625B12E351F
:1000600028F025E126BF2CBF0FBE18950FBE1895AE
:100070000FED0DBF02E00BE014E008BB17BB07E774
:1000800001B903E718E80BBB1ABB04E408B97FEF1A
:1000900010E015BD14BD01E00FBD0AEC0EBD0BB1A3
:1000A0000BB901E20CB90FEF06BF0FE40CBF00E083
:1000B00009BF01EA00BF02E003BF01E207B905E1A1
:1000C00003B90BEB06B9789400E205BF88950027C9
:0400D00005BFFACF9F
:00000001FF
