:020000020000FC
:1000000037C036C035C034C033C00BC031C030C07B
:1000100020C02EC02DC02CC02BC01FC029C028C09E
:1000200027C00FB6E0E2E9BB44B555B5CA01821B53
:10003000930BFE01749740F48607970718F4EFE4DA
:10004000ECBF02C0EFEFECBFBC019A0111960FBEEE
:1000500018950FB601960FBE18950FB6E5B1EE359F
:1000600028F0E5E1E6BFECBF0FBE18950FBE18956E
:100070000FED0DBF02E000B90BE014E008BB17BBA9
:1000800007E401B903E418EB0BBB1ABB02E508B99E
:1000900008B108B9429A7FEF002705BD04BD00E012
:1000A0000FBD02E80EBD0BB10BB901E20CB90FEFA9
:1000B00006BF0FE40CBF00E009BF01EA00BF02E089
:1000C00003BF01E207B905E103B90BEB06B9789468
:0200D000FFCF60
:00000001FF
